{
  "_format": "hh-sol-artifact-1",
  "contractName": "TokenBatchTransfer",
  "sourceName": "contracts/TokenBatchTransfer.sol",
  "abi": [
    {
      "inputs": [
        {
          "internalType": "address",
          "name": "_token",
          "type": "address"
        }
      ],
      "stateMutability": "nonpayable",
      "type": "constructor"
    },
    {
      "inputs": [
        {
          "internalType": "address",
          "name": "owner",
          "type": "address"
        }
      ],
      "name": "OwnableInvalidOwner",
      "type": "error"
    },
    {
      "inputs": [
        {
          "internalType": "address",
          "name": "account",
          "type": "address"
        }
      ],
      "name": "OwnableUnauthorizedAccount",
      "type": "error"
    },
    {
      "anonymous": false,
      "inputs": [
        {
          "indexed": true,
          "internalType": "address",
          "name": "sender",
          "type": "address"
        },
        {
          "indexed": false,
          "internalType": "address[]",
          "name": "recipients",
          "type": "address[]"
        },
        {
          "indexed": false,
          "internalType": "uint256[]",
          "name": "amounts",
          "type": "uint256[]"
        }
      ],
      "name": "BatchTransfer",
      "type": "event"
    },
    {
      "anonymous": false,
      "inputs": [
        {
          "indexed": true,
          "internalType": "address",
          "name": "previousOwner",
          "type": "address"
        },
        {
          "indexed": true,
          "internalType": "address",
          "name": "newOwner",
          "type": "address"
        }
      ],
      "name": "OwnershipTransferred",
      "type": "event"
    },
    {
      "anonymous": false,
      "inputs": [
        {
          "indexed": true,
          "internalType": "address",
          "name": "sender",
          "type": "address"
        },
        {
          "indexed": false,
          "internalType": "uint256",
          "name": "amount",
          "type": "uint256"
        }
      ],
      "name": "WithdrawToken",
      "type": "event"
    },
    {
      "inputs": [
        {
          "internalType": "address[]",
          "name": "tokenHolders",
          "type": "address[]"
        },
        {
          "internalType": "uint256[]",
          "name": "amounts",
          "type": "uint256[]"
        }
      ],
      "name": "batchTransfer",
      "outputs": [],
      "stateMutability": "nonpayable",
      "type": "function"
    },
    {
      "inputs": [],
      "name": "owner",
      "outputs": [
        {
          "internalType": "address",
          "name": "",
          "type": "address"
        }
      ],
      "stateMutability": "view",
      "type": "function"
    },
    {
      "inputs": [],
      "name": "renounceOwnership",
      "outputs": [],
      "stateMutability": "nonpayable",
      "type": "function"
    },
    {
      "inputs": [
        {
          "internalType": "address",
          "name": "_vaultAdress",
          "type": "address"
        }
      ],
      "name": "setVaultAddress",
      "outputs": [],
      "stateMutability": "nonpayable",
      "type": "function"
    },
    {
      "inputs": [
        {
          "internalType": "uint256[]",
          "name": "amounts",
          "type": "uint256[]"
        }
      ],
      "name": "sum",
      "outputs": [
        {
          "internalType": "uint256",
          "name": "total",
          "type": "uint256"
        }
      ],
      "stateMutability": "pure",
      "type": "function"
    },
    {
      "inputs": [],
      "name": "token",
      "outputs": [
        {
          "internalType": "contract IERC20",
          "name": "",
          "type": "address"
        }
      ],
      "stateMutability": "view",
      "type": "function"
    },
    {
      "inputs": [
        {
          "internalType": "address",
          "name": "newOwner",
          "type": "address"
        }
      ],
      "name": "transferOwnership",
      "outputs": [],
      "stateMutability": "nonpayable",
      "type": "function"
    },
    {
      "inputs": [],
      "name": "vaultAddress",
      "outputs": [
        {
          "internalType": "address",
          "name": "",
          "type": "address"
        }
      ],
      "stateMutability": "view",
      "type": "function"
    },
    {
      "inputs": [],
      "name": "withdrawAllToken",
      "outputs": [],
      "stateMutability": "nonpayable",
      "type": "function"
    },
    {
      "inputs": [
        {
          "internalType": "uint256",
          "name": "_amount",
          "type": "uint256"
        }
      ],
      "name": "withdrawToken",
      "outputs": [],
      "stateMutability": "nonpayable",
      "type": "function"
    }
  ],
  "bytecode": "0x608060405234801561001057600080fd5b50604051610dbd380380610dbd83398101604081905261002f916100dd565b338061005557604051631e4fbdf760e01b81526000600482015260240160405180910390fd5b61005e8161008d565b50600180546001600160a01b039092166001600160a01b0319928316179055600280549091163317905561010d565b600080546001600160a01b038381166001600160a01b0319831681178455604051919092169283917f8be0079c531659141344cd1fd0a4f28419497f9722a3daafe3b4186f6b6457e09190a35050565b6000602082840312156100ef57600080fd5b81516001600160a01b038116811461010657600080fd5b9392505050565b610ca18061011c6000396000f3fe608060405234801561001057600080fd5b506004361061009e5760003560e01c806385535cc51161006657806385535cc51461011957806388d695b21461012c5780638da5cb5b1461013f578063f2fde38b14610150578063fc0c546a1461016357600080fd5b80630194db8e146100a357806314870d2c146100c9578063430bf08a146100d357806350baa622146100fe578063715018a614610111575b600080fd5b6100b66100b1366004610996565b610176565b6040519081526020015b60405180910390f35b6100d16101b8565b005b6002546100e6906001600160a01b031681565b6040516001600160a01b0390911681526020016100c0565b6100d161010c366004610a63565b61038a565b6100d16105a8565b6100d1610127366004610a98565b6105bc565b6100d161013a366004610b06565b6105e6565b6000546001600160a01b03166100e6565b6100d161015e366004610a98565b6108c5565b6001546100e6906001600160a01b031681565b6000805b82518110156101b25782818151811061019557610195610b77565b6020026020010151826101a89190610b8d565b915060010161017a565b50919050565b6101c0610903565b6001546040516370a0823160e01b81523060048201526000916001600160a01b0316906370a0823190602401602060405180830381865afa158015610209573d6000803e3d6000fd5b505050506040513d601f19601f8201168201806040525081019061022d9190610bb4565b9050600081116102845760405162461bcd60e51b815260206004820152601d60248201527f416d6f756e74206d7573742062652067726561746572207468616e203000000060448201526064015b60405180910390fd5b60015460025460405163a9059cbb60e01b81526001600160a01b03918216600482015260248101849052600092919091169063a9059cbb906044016020604051808303816000875af11580156102de573d6000803e3d6000fd5b505050506040513d601f19601f820116820180604052508101906103029190610bcd565b9050806103515760405162461bcd60e51b815260206004820152601f60248201527f576974686472617720616c6c20776173206e6f74207375636365737366756c00604482015260640161027b565b60405182815233907f992ee874049a42cae0757a765cd7f641b6028cc35c3478bde8330bf417c3a7a99060200160405180910390a25050565b610392610903565b6001546040516370a0823160e01b81523060048201526000916001600160a01b0316906370a0823190602401602060405180830381865afa1580156103db573d6000803e3d6000fd5b505050506040513d601f19601f820116820180604052508101906103ff9190610bb4565b9050600082116104515760405162461bcd60e51b815260206004820152601d60248201527f416d6f756e74206d7573742062652067726561746572207468616e2030000000604482015260640161027b565b808211156104a15760405162461bcd60e51b815260206004820152601d60248201527f496e73756666696369656e7420636f6e74726163742062616c616e6365000000604482015260640161027b565b60015460025460405163a9059cbb60e01b81526001600160a01b03918216600482015260248101859052600092919091169063a9059cbb906044016020604051808303816000875af11580156104fb573d6000803e3d6000fd5b505050506040513d601f19601f8201168201806040525081019061051f9190610bcd565b90508061056e5760405162461bcd60e51b815260206004820152601b60248201527f576974686472617720776173206e6f74207375636365737366756c0000000000604482015260640161027b565b60405183815233907f992ee874049a42cae0757a765cd7f641b6028cc35c3478bde8330bf417c3a7a99060200160405180910390a2505050565b6105b0610903565b6105ba6000610930565b565b6105c4610903565b600280546001600160a01b0319166001600160a01b0392909216919091179055565b6105ee610903565b82811461063d5760405162461bcd60e51b815260206004820152601e60248201527f4c656e67746873206f662061727261797320646f206e6f74206d617463680000604482015260640161027b565b600061067b83838080602002602001604051908101604052809392919081815260200183836020028082843760009201919091525061017692505050565b6001546040516370a0823160e01b815230600482015291925082916001600160a01b03909116906370a0823190602401602060405180830381865afa1580156106c8573d6000803e3d6000fd5b505050506040513d601f19601f820116820180604052508101906106ec9190610bb4565b10156107455760405162461bcd60e51b815260206004820152602260248201527f4e6f7420656e6f7567682062616c616e636520696e2074686520636f6e74726160448201526118dd60f21b606482015260840161027b565b60005b84811015610876576001546001600160a01b031663a9059cbb87878481811061077357610773610b77565b90506020020160208101906107889190610a98565b86868581811061079a5761079a610b77565b6040516001600160e01b031960e087901b1681526001600160a01b03909416600485015260200291909101356024830152506044016020604051808303816000875af11580156107ee573d6000803e3d6000fd5b505050506040513d601f19601f820116820180604052508101906108129190610bcd565b61086e5760405162461bcd60e51b815260206004820152602760248201527f556e61626c6520746f207472616e7366657220746f6b656e20746f20746865206044820152661858d8dbdd5b9d60ca1b606482015260840161027b565b600101610748565b50336001600160a01b03167fd76871a3b9b205c530f73884df11af482cc4ac28f71bdb2f15a98e79a3a79076868686866040516108b69493929190610bef565b60405180910390a25050505050565b6108cd610903565b6001600160a01b0381166108f757604051631e4fbdf760e01b81526000600482015260240161027b565b61090081610930565b50565b6000546001600160a01b031633146105ba5760405163118cdaa760e01b815233600482015260240161027b565b600080546001600160a01b038381166001600160a01b0319831681178455604051919092169283917f8be0079c531659141344cd1fd0a4f28419497f9722a3daafe3b4186f6b6457e09190a35050565b634e487b7160e01b600052604160045260246000fd5b6000602082840312156109a857600080fd5b813567ffffffffffffffff8111156109bf57600080fd5b8201601f810184136109d057600080fd5b803567ffffffffffffffff8111156109ea576109ea610980565b8060051b604051601f19603f830116810181811067ffffffffffffffff82111715610a1757610a17610980565b604052918252602081840181019290810187841115610a3557600080fd5b6020850194505b83851015610a5857843580825260209586019590935001610a3c565b509695505050505050565b600060208284031215610a7557600080fd5b5035919050565b80356001600160a01b0381168114610a9357600080fd5b919050565b600060208284031215610aaa57600080fd5b610ab382610a7c565b9392505050565b60008083601f840112610acc57600080fd5b50813567ffffffffffffffff811115610ae457600080fd5b6020830191508360208260051b8501011115610aff57600080fd5b9250929050565b60008060008060408587031215610b1c57600080fd5b843567ffffffffffffffff811115610b3357600080fd5b610b3f87828801610aba565b909550935050602085013567ffffffffffffffff811115610b5f57600080fd5b610b6b87828801610aba565b95989497509550505050565b634e487b7160e01b600052603260045260246000fd5b80820180821115610bae57634e487b7160e01b600052601160045260246000fd5b92915050565b600060208284031215610bc657600080fd5b5051919050565b600060208284031215610bdf57600080fd5b81518015158114610ab357600080fd5b6040808252810184905260008560608301825b87811015610c30576001600160a01b03610c1b84610a7c565b16825260209283019290910190600101610c02565b5083810360208501528481526001600160fb1b03851115610c5057600080fd5b8460051b91508186602083013701602001969550505050505056fea2646970667358221220ee64b43c06b45a47172c5bac23048a0d261ab2994ea0b5b54e507bf55a8718cc64736f6c634300081b0033",
  "linkReferences": {},
  "deployedLinkReferences": {}
}